ByteIN22052024093108650  4966704101004966704108116584                                                                                                                003000N000000009419000000000000172200000000001722024052213313000928257306997350931352024052229022902O202405225812348152152071000049667041081165840000000490836000000006870000000000000000148970200000 00  COMPRA  AUTORIZACION ACEPTADA         00000196832       000000000028350CAFE FREI BUD AIRPORT    BUDAPEST     HU     BUDAPEST  15200000000000000000000000000000000000000000N045                                                  34884000000000312574000000550000                                              0000000000000001                           0000000000000000                                  0000000000000000000000000                         687   49667001N1000000550000000000000000POS                RUT     0165644492ISABEL                  LETELIER    MATURANA         016564449200000000CrLAFAYETTE 2016                                                        000000000000000000000000000096393235K VIA   000000000000000000 7000600000000 0000 49667041                            000000000000NNND5AD076D E236 4859 B73A E841A492E521                                            4966704108116584                                                                                                                4966704108116584                                                                                                                                                                                                                   00               0000    000000000000000                                                        00000                 ByteF
ByteIN22052024093108650  4966701801004966701832272766                                                                                                                003000N000000009419000000000000172200000000001722024052213313000928257306997350931352024052229022902O202405225812348152152071000049667018322727660000000490836000000006870000000000000000148970200000 00  COMPRA  AUTORIZACION ACEPTADA         00000196832       000000000028350CAFE FREI BUD AIRPORT    BUDAPEST     HU     BUDAPEST  15200000000000000000000000000000000000000000N045                                                  34884000000000312574000000550000                                              0000000000000001                           0000000000000000                                  0000000000000000000000000                         687   49667001N1000000550000000000000000POS                RUT     0165644492ISABEL                  LETELIER    MATURANA         016564449200000000CrLAFAYETTE 2016                                                        000000000000000000000000000096393235K VIA   000000000000000000 7000600000000 0000 49667018                            000000000000NNND5AD076D E236 4859 B73A E841A492E521                                            4966701832272766                                                                                                                4966701832272766                                                                                                                                                                                                                   00               0000    000000000000000                                                        00000                 ByteF
ByteIN22052024093108650  4966707201004966707277384503                                                                                                                003000N000000009419000000000000172200000000001722024052213313000928257306997350931352024052229022902O202405225812348152152071000049667072773845030000000490836000000006870000000000000000148970200000 00  COMPRA  AUTORIZACION ACEPTADA         00000196832       000000000028350CAFE FREI BUD AIRPORT    BUDAPEST     HU     BUDAPEST  HU 00000000000000000000000000000000000000000N045                                                  34884000000000312574000000550000                                              0000000000000000                           0000000000000000                                  0000000000000000000000000                         687   43495601N1000000550000000000000000POS                RUT     0165644492ISABEL                  LETELIER    MATURANA         016564449200000000CrLAFAYETTE 2016                                                        000000000000000000000000000096393235K VIA   000000000000000000 0000600000000 0000                                     000000000000BNND5AD076D E236 4859 B73A E841A492E521                                            4966707277384503                                                                                                                4966707277384503                                                                                                                                                                                                                   00               0000    000000000000000                                                        00000                 ByteF
ByteIN22052024093108650  4966708801004966708830052181                                                                                                                003000N000000009419000000000000172200000000001722024052213313000928257306997350931352024052229022902O202405225812348152152071000049667088300521810000000490836000000006870000000000000000148970200000 00  COMPRA  AUTORIZACION ACEPTADA         00000196832       000000000028350CAFE FREI BUD AIRPORT    BUDAPEST     HU     BUDAPEST  HU 00000000000000000000000000000000000000000N045                                                  34884000000000312574000000550000                                              0000000000000000                           0000000000000000                                  0000000000000000000000000                         687   43495601N1000000550000000000000000POS                RUT     0165644492ISABEL                  LETELIER    MATURANA         016564449200000000CrLAFAYETTE 2016                                                        000000000000000000000000000096393235K VIA   000000000000000000 0000600000000 0000                                     000000000000BNND5AD076D E236 4859 B73A E841A492E521                                            4966708830052181                                                                                                                4966708830052181                                                                                                                                                                                                                   00               0000    000000000000000                                                        00000                 ByteF
ByteIN22052024093108650  4966707301004966707346248614                                                                                                                003000N000000009419000000000000172200000000001722024052213313000928257306997350931352024052229022902O202405225812348152152071000049667073462486140000000490836000000006870000000000000000148970200000 00  COMPRA  AUTORIZACION ACEPTADA         00000196832       000000000028350CAFE FREI BUD AIRPORT    BUDAPEST     HU     BUDAPEST  HU 00000000000000000000000000000000000000000N045                                                  34884000000000312574000000550000                                              0000000000000000                           0000000000000000                                  0000000000000000000000000                         687   43495601N1000000550000000000000000POS                RUT     0165644492ISABEL                  LETELIER    MATURANA         016564449200000000CrLAFAYETTE 2016                                                        000000000000000000000000000096393235K VIA   000000000000000000 0000600000000 0000                                     000000000000BNND5AD076D E236 4859 B73A E841A492E521                                            4966707346248614                                                                                                                4966707346248614                                                                                                                                                                                                                   00               0000    000000000000000                                                        00000                 ByteF